{
  "contractName": "HelloWorld",
  "abi": [
    {
      "constant": true,
      "inputs": [],
      "name": "print",
      "outputs": [
        {
          "name": "",
          "type": "string"
        },
        {
          "name": "",
          "type": "uint256[]"
        }
      ],
      "payable": false,
      "stateMutability": "view",
      "type": "function"
    }
  ],
  "bytecode": "0x6060604052608060405190810160405280600160ff168152602001600260ff168152602001600360ff168152602001600460ff168152506000906004610046929190610057565b50341561005257600080fd5b6100ce565b828054828255906000526020600020908101928215610098579160200282015b82811115610097578251829060ff16905591602001919060010190610077565b5b5090506100a591906100a9565b5090565b6100cb91905b808211156100c75760008160009055506001016100af565b5090565b90565b61021e806100dd6000396000f300606060405260043610610041576000357c0100000000000000000000000000000000000000000000000000000000900463ffffffff16806313bdfacd14610046575b600080fd5b341561005157600080fd5b61005961011c565b604051808060200180602001838103835285818151815260200191508051906020019080838360005b8381101561009d578082015181840152602081019050610082565b50505050905090810190601f1680156100ca5780820380516001836020036101000a031916815260200191505b50838103825284818151815260200191508051906020019060200280838360005b838110156101065780820151818401526020810190506100eb565b5050505090500194505050505060405180910390f35b6101246101ca565b61012c6101de565b6101346101ca565b6040805190810160405280600a81526020017f48656c6c6f576f726c64000000000000000000000000000000000000000000008152509050806000808054806020026020016040519081016040528092919081815260200182805480156101ba57602002820191906000526020600020905b8154815260200190600101908083116101a6575b5050505050905092509250509091565b602060405190810160405280600081525090565b6020604051908101604052806000815250905600a165627a7a723058207ec44ca7e0b389b6170f0dc350d6f0dbdc0bc20749b8fa3a7d8c15983dc4ecc30029",
  "source": "pragma solidity ^0.4.4;\n\ncontract HelloWorld {\n  uint []T = [1,2,3,4];\n  function print() constant returns (string,uint[]) {\n    string memory str = \"HelloWorld\";\n    return (str,T);\n  }\n}\n",
  "sourcePath": "/home/jachin/Desktop/demo_new/contracts/HelloWorld.sol",
  "compiler": {
    "name": "solc",
    "version": "0.4.18+commit.9cf6e910.Emscripten.clang"
  },
  "schemaVersion": "1.0.1",
  "updatedAt": "2018-06-04T04:45:20.355Z"
}