{
  "contractName": "PowerTrade",
  "abi": [
    {
      "constant": true,
      "inputs": [],
      "name": "getEBalance",
      "outputs": [
        {
          "name": "",
          "type": "address"
        },
        {
          "name": "",
          "type": "uint256"
        }
      ],
      "payable": false,
      "stateMutability": "view",
      "type": "function"
    },
    {
      "constant": true,
      "inputs": [],
      "name": "getBalance",
      "outputs": [
        {
          "name": "",
          "type": "uint256"
        }
      ],
      "payable": false,
      "stateMutability": "view",
      "type": "function"
    },
    {
      "constant": true,
      "inputs": [],
      "name": "getAllEnabledPurchaserRequest",
      "outputs": [
        {
          "name": "",
          "type": "uint256[10]"
        },
        {
          "name": "",
          "type": "uint256[10]"
        },
        {
          "name": "",
          "type": "uint256[10]"
        },
        {
          "name": "",
          "type": "uint256[10]"
        },
        {
          "name": "",
          "type": "uint256[10]"
        },
        {
          "name": "",
          "type": "uint256[10]"
        },
        {
          "name": "",
          "type": "uint256"
        }
      ],
      "payable": false,
      "stateMutability": "view",
      "type": "function"
    },
    {
      "constant": true,
      "inputs": [],
      "name": "getAllPurchaserRequest",
      "outputs": [
        {
          "name": "",
          "type": "uint256[10]"
        },
        {
          "name": "",
          "type": "uint256[10]"
        },
        {
          "name": "",
          "type": "uint256[10]"
        },
        {
          "name": "",
          "type": "uint256[10]"
        },
        {
          "name": "",
          "type": "uint256[10]"
        },
        {
          "name": "",
          "type": "uint256[10]"
        },
        {
          "name": "",
          "type": "uint256[10]"
        }
      ],
      "payable": false,
      "stateMutability": "view",
      "type": "function"
    },
    {
      "constant": false,
      "inputs": [
        {
          "name": "userID",
          "type": "uint256"
        }
      ],
      "name": "deleteUser",
      "outputs": [
        {
          "name": "",
          "type": "bool"
        }
      ],
      "payable": false,
      "stateMutability": "nonpayable",
      "type": "function"
    },
    {
      "constant": false,
      "inputs": [
        {
          "name": "requestID",
          "type": "uint256"
        },
        {
          "name": "pricerandomString",
          "type": "string"
        },
        {
          "name": "price",
          "type": "uint256"
        }
      ],
      "name": "sendRealPrice",
      "outputs": [
        {
          "name": "",
          "type": "bool"
        }
      ],
      "payable": false,
      "stateMutability": "nonpayable",
      "type": "function"
    },
    {
      "constant": true,
      "inputs": [
        {
          "name": "userAddress",
          "type": "address"
        }
      ],
      "name": "verifyUser",
      "outputs": [
        {
          "name": "",
          "type": "bool"
        }
      ],
      "payable": false,
      "stateMutability": "view",
      "type": "function"
    },
    {
      "constant": false,
      "inputs": [
        {
          "name": "requestID",
          "type": "uint256"
        },
        {
          "name": "sellerProvide",
          "type": "uint256"
        },
        {
          "name": "sellerDeposit",
          "type": "uint256"
        },
        {
          "name": "hashValue",
          "type": "bytes32"
        }
      ],
      "name": "sendEncryptPrice",
      "outputs": [
        {
          "name": "",
          "type": "bool"
        }
      ],
      "payable": true,
      "stateMutability": "payable",
      "type": "function"
    },
    {
      "constant": false,
      "inputs": [
        {
          "name": "requestID",
          "type": "uint256"
        }
      ],
      "name": "transactionAccount",
      "outputs": [
        {
          "name": "",
          "type": "bool"
        }
      ],
      "payable": false,
      "stateMutability": "nonpayable",
      "type": "function"
    },
    {
      "constant": true,
      "inputs": [],
      "name": "getAllPurchaserNum",
      "outputs": [
        {
          "name": "",
          "type": "uint256"
        }
      ],
      "payable": false,
      "stateMutability": "view",
      "type": "function"
    },
    {
      "constant": true,
      "inputs": [
        {
          "name": "requestID",
          "type": "uint256"
        }
      ],
      "name": "sendEncryptPriceEnd",
      "outputs": [
        {
          "name": "",
          "type": "bool"
        }
      ],
      "payable": false,
      "stateMutability": "view",
      "type": "function"
    },
    {
      "constant": true,
      "inputs": [
        {
          "name": "requestID",
          "type": "uint256"
        }
      ],
      "name": "sendRealPriceEnd",
      "outputs": [
        {
          "name": "",
          "type": "bool"
        }
      ],
      "payable": false,
      "stateMutability": "view",
      "type": "function"
    },
    {
      "constant": true,
      "inputs": [],
      "name": "getOwnPurchaseRuquest",
      "outputs": [
        {
          "name": "",
          "type": "uint256[10]"
        },
        {
          "name": "",
          "type": "uint256[10]"
        },
        {
          "name": "",
          "type": "uint256[10]"
        },
        {
          "name": "",
          "type": "uint256[10]"
        },
        {
          "name": "",
          "type": "uint256"
        }
      ],
      "payable": false,
      "stateMutability": "view",
      "type": "function"
    },
    {
      "constant": false,
      "inputs": [
        {
          "name": "powerExpected",
          "type": "uint256"
        },
        {
          "name": "endTime",
          "type": "uint256"
        }
      ],
      "name": "releaseRequest",
      "outputs": [
        {
          "name": "",
          "type": "bool"
        }
      ],
      "payable": true,
      "stateMutability": "payable",
      "type": "function"
    },
    {
      "constant": false,
      "inputs": [],
      "name": "deposit",
      "outputs": [
        {
          "name": "addr",
          "type": "address"
        },
        {
          "name": "amount",
          "type": "uint256"
        },
        {
          "name": "success",
          "type": "bool"
        }
      ],
      "payable": true,
      "stateMutability": "payable",
      "type": "function"
    },
    {
      "constant": true,
      "inputs": [],
      "name": "getOwnBidRecord",
      "outputs": [
        {
          "name": "",
          "type": "uint256[10]"
        },
        {
          "name": "",
          "type": "uint256[10]"
        },
        {
          "name": "",
          "type": "uint256[10]"
        },
        {
          "name": "",
          "type": "uint256[10]"
        },
        {
          "name": "",
          "type": "uint256[10]"
        },
        {
          "name": "",
          "type": "uint256"
        }
      ],
      "payable": false,
      "stateMutability": "view",
      "type": "function"
    },
    {
      "constant": false,
      "inputs": [
        {
          "name": "power",
          "type": "uint256"
        }
      ],
      "name": "addUser",
      "outputs": [
        {
          "name": "",
          "type": "bool"
        }
      ],
      "payable": false,
      "stateMutability": "nonpayable",
      "type": "function"
    },
    {
      "inputs": [],
      "payable": false,
      "stateMutability": "nonpayable",
      "type": "constructor"
    },
    {
      "payable": true,
      "stateMutability": "payable",
      "type": "fallback"
    }
  ],
  "bytecode": "0x6060604052341561000f57600080fd5b336000806101000a81548173ffffffffffffffffffffffffffffffffffffffff021916908373ffffffffffffffffffffffffffffffffffffffff1602179055506128608061005e6000396000f3006060604052600436106100f1576000357c0100000000000000000000000000000000000000000000000000000000900463ffffffff16806310802ae3146100f357806312065fe01461014f57806316fe965d14610178578063248db8ea146102bb57806338f148451461042657806348d67bc0146104615780634d813120146104e857806357ccf5a5146105395780635b13b7fe146105885780636014dea3146105c357806364096dac146105ec578063743e60d214610627578063a9e143de14610662578063b0ec2d0b14610747578063d0e30db014610780578063db2321a0146107dc578063e1d81736146108f0575b005b34156100fe57600080fd5b61010661092b565b604051808373ffffffffffffffffffffffffffffffffffffffff1673ffffffffffffffffffffffffffffffffffffffff1681526020018281526020019250505060405180910390f35b341561015a57600080fd5b6101626109f8565b6040518082815260200191505060405180910390f35b341561018357600080fd5b61018b610a17565b6040518088600a60200280838360005b838110156101b657808201518184015260208101905061019b565b5050505090500187600a60200280838360005b838110156101e45780820151818401526020810190506101c9565b5050505090500186600a60200280838360005b838110156102125780820151818401526020810190506101f7565b5050505090500185600a60200280838360005b83811015610240578082015181840152602081019050610225565b5050505090500184600a60200280838360005b8381101561026e578082015181840152602081019050610253565b5050505090500183600a60200280838360005b8381101561029c578082015181840152602081019050610281565b5050505090500182815260200197505050505050505060405180910390f35b34156102c657600080fd5b6102ce610c2d565b6040518088600a60200280838360005b838110156102f95780820151818401526020810190506102de565b5050505090500187600a60200280838360005b8381101561032757808201518184015260208101905061030c565b5050505090500186600a60200280838360005b8381101561035557808201518184015260208101905061033a565b5050505090500185600a60200280838360005b83811015610383578082015181840152602081019050610368565b5050505090500184600a60200280838360005b838110156103b1578082015181840152602081019050610396565b5050505090500183600a60200280838360005b838110156103df5780820151818401526020810190506103c4565b5050505090500182600a60200280838360005b8381101561040d5780820151818401526020810190506103f2565b5050505090500197505050505050505060405180910390f35b341561043157600080fd5b6104476004808035906020019091905050610e5c565b604051808215151515815260200191505060405180910390f35b341561046c57600080fd5b6104ce600480803590602001909190803590602001908201803590602001908080601f01602080910402602001604051908101604052809392919081815260200183838082843782019150505050505091908035906020019091905050610f18565b604051808215151515815260200191505060405180910390f35b34156104f357600080fd5b61051f600480803573ffffffffffffffffffffffffffffffffffffffff1690602001909190505061119c565b604051808215151515815260200191505060405180910390f35b61056e600480803590602001909190803590602001909190803590602001909190803560001916906020019091905050611287565b604051808215151515815260200191505060405180910390f35b341561059357600080fd5b6105a96004808035906020019091905050611415565b604051808215151515815260200191505060405180910390f35b34156105ce57600080fd5b6105d6611ae3565b6040518082815260200191505060405180910390f35b34156105f757600080fd5b61060d6004808035906020019091905050611af0565b604051808215151515815260200191505060405180910390f35b341561063257600080fd5b6106486004808035906020019091905050611b2d565b604051808215151515815260200191505060405180910390f35b341561066d57600080fd5b610675611b6a565b6040518086600a60200280838360005b838110156106a0578082015181840152602081019050610685565b5050505090500185600a60200280838360005b838110156106ce5780820151818401526020810190506106b3565b5050505090500184600a60200280838360005b838110156106fc5780820151818401526020810190506106e1565b5050505090500183600a60200280838360005b8381101561072a57808201518184015260208101905061070f565b505050509050018281526020019550505050505060405180910390f35b6107666004808035906020019091908035906020019091905050611d2d565b604051808215151515815260200191505060405180910390f35b610788611e8f565b604051808473ffffffffffffffffffffffffffffffffffffffff1673ffffffffffffffffffffffffffffffffffffffff16815260200183815260200182151515158152602001935050505060405180910390f35b34156107e757600080fd5b6107ef611ed6565b6040518087600a60200280838360005b8381101561081a5780820151818401526020810190506107ff565b5050505090500186600a60200280838360005b8381101561084857808201518184015260208101905061082d565b5050505090500185600a60200280838360005b8381101561087657808201518184015260208101905061085b565b5050505090500184600a60200280838360005b838110156108a4578082015181840152602081019050610889565b5050505090500183600a60200280838360005b838110156108d25780820151818401526020810190506108b7565b50505050905001828152602001965050505050505060405180910390f35b34156108fb57600080fd5b6109116004808035906020019091905050612160565b604051808215151515815260200191505060405180910390f35b60008060008060009150600091505b6001805490508210156109ec5760018281548110151561095657fe5b906000526020600020906003020160000160009054906101000a900473ffffffffffffffffffffffffffffffffffffffff1673ffffffffffffffffffffffffffffffffffffffff163373ffffffffffffffffffffffffffffffffffffffff1614156109df576001828154811015156109ca57fe5b90600052602060002090600302016001015490505b818060010192505061093a565b33819350935050509091565b60003073ffffffffffffffffffffffffffffffffffffffff1631905090565b610a1f61260f565b610a2761260f565b610a2f61260f565b610a3761260f565b610a3f61260f565b610a4761260f565b6000806000610a5461260f565b610a5c61260f565b610a6461260f565b610a6c61260f565b610a7461260f565b610a7c61260f565b6000975060009650600097505b600280549050881015610c0757600288815481101515610aa557fe5b906000526020600020906007020160040154421115610ac357610bfa565b878688600a81101515610ad257fe5b602002018181525050600288815481101515610aea57fe5b9060005260206000209060070201600101548588600a81101515610b0a57fe5b602002018181525050600288815481101515610b2257fe5b9060005260206000209060070201600301548488600a81101515610b4257fe5b602002018181525050600288815481101515610b5a57fe5b9060005260206000209060070201600401548388600a81101515610b7a57fe5b602002018181525050600288815481101515610b9257fe5b9060005260206000209060070201600501548288600a81101515610bb257fe5b602002018181525050600288815481101515610bca57fe5b9060005260206000209060070201600601548188806001019950600a81101515610bf057fe5b6020020181815250505b8780600101985050610a89565b8585858585858c9e509e509e509e509e509e509e50505050505050505090919293949596565b610c3561260f565b610c3d61260f565b610c4561260f565b610c4d61260f565b610c5561260f565b610c5d61260f565b610c6561260f565b600080610c7061260f565b610c7861260f565b610c8061260f565b610c8861260f565b610c9061260f565b610c9861260f565b610ca061260f565b6000985060009750600098505b600280549050891015610e3557888789600a81101515610cc957fe5b602002018181525050600289815481101515610ce157fe5b9060005260206000209060070201600101548689600a81101515610d0157fe5b602002018181525050600289815481101515610d1957fe5b9060005260206000209060070201600201548589600a81101515610d3957fe5b602002018181525050600289815481101515610d5157fe5b9060005260206000209060070201600301548489600a81101515610d7157fe5b602002018181525050600289815481101515610d8957fe5b9060005260206000209060070201600401548389600a81101515610da957fe5b602002018181525050600289815481101515610dc157fe5b9060005260206000209060070201600501548289600a81101515610de157fe5b602002018181525050600289815481101515610df957fe5b9060005260206000209060070201600601548189806001019a50600a81101515610e1f57fe5b6020020181815250508880600101995050610cad565b868686868686869f509f509f509f509f509f509f5050505050505050505090919293949596565b60008060009054906101000a900473ffffffffffffffffffffffffffffffffffffffff1673ffffffffffffffffffffffffffffffffffffffff163373ffffffffffffffffffffffffffffffffffffffff16141515610ebd5760009050610f13565b6001808054905003821115610ed55760009050610f13565b6000600183815481101515610ee657fe5b906000526020600020906003020160020160006101000a81548160ff021916908315150217905550600190505b919050565b6000806000905060001515610f2c3361119c565b15151415610f3d5760009150611194565b60011515610f4a86611b2d565b15151415610f5b5760009150611194565b600090505b600360008681526020019081526020016000208054905081101561118f573373ffffffffffffffffffffffffffffffffffffffff166003600087815260200190815260200160002082815481101515610fb557fe5b906000526020600020906006020160000160009054906101000a900473ffffffffffffffffffffffffffffffffffffffff1673ffffffffffffffffffffffffffffffffffffffff16141561118257836040518082805190602001908083835b6020831015156110395780518252602082019150602081019050602083039250611014565b6001836020036101000a038019825116818451168082178552505050505050905001915050604051809103902060001916600360008781526020019081526020016000208281548110151561108a57fe5b90600052602060002090600602016002015460001916141561112f57600160036000878152602001908152602001600020828154811015156110c857fe5b906000526020600020906006020160040160006101000a81548160ff02191690831515021790555082600360008781526020019081526020016000208281548110151561111157fe5b90600052602060002090600602016003018190555060019150611194565b6000600360008781526020019081526020016000208281548110151561115157fe5b906000526020600020906006020160040160006101000a81548160ff02191690831515021790555060009150611194565b8080600101915050610f60565b600091505b509392505050565b60008060009050600090505b60018054905081101561127c578273ffffffffffffffffffffffffffffffffffffffff166001828154811015156111db57fe5b906000526020600020906003020160000160009054906101000a900473ffffffffffffffffffffffffffffffffffffffff1673ffffffffffffffffffffffffffffffffffffffff1614801561126157506001151560018281548110151561123e57fe5b906000526020600020906003020160020160009054906101000a900460ff161515145b1561126f5760019150611281565b80806001019150506111a8565b600091505b50919050565b6000806000806000151561129a3361119c565b151514156112ab576000935061140a565b600115156112b889611af0565b151514156112c9576000935061140a565b6112d1611e8f565b9250925092508015156112e7576000935061140a565b60036000898152602001908152602001600020805480600101828161130c9190612638565b9160005260206000209060060201600060c0604051908101604052803373ffffffffffffffffffffffffffffffffffffffff1681526020018b815260200189600019168152602001600081526020016000151581526020018a815250909190915060008201518160000160006101000a81548173ffffffffffffffffffffffffffffffffffffffff021916908373ffffffffffffffffffffffffffffffffffffffff16021790555060208201518160010155604082015181600201906000191690556060820151816003015560808201518160040160006101000a81548160ff02191690831515021790555060a08201518160050155505050600193505b505050949350505050565b600061141f61266a565b60008061142b856122e0565b151561143657600080fd5b60036000868152602001908152602001600020805480602002602001604051908101604052809291908181526020016000905b8282101561153d578382906000526020600020906006020160c060405190810160405290816000820160009054906101000a900473ffffffffffffffffffffffffffffffffffffffff1673ffffffffffffffffffffffffffffffffffffffff1673ffffffffffffffffffffffffffffffffffffffff16815260200160018201548152602001600282015460001916600019168152602001600382015481526020016004820160009054906101000a900460ff1615151515815260200160058201548152505081526020019060010190611469565b5050505092506000915060028581548110151561155657fe5b9060005260206000209060070201600101549050600091505b82518210156119575760001515838381518110151561158a57fe5b9060200190602002015160800151151514156115a55761194a565b8083838151811015156115b457fe5b90602001906020020151602001511115156117685782828151811015156115d757fe5b906020019060200201516000015173ffffffffffffffffffffffffffffffffffffffff166108fc848481518110151561160c57fe5b9060200190602002015160600151858581518110151561162857fe5b9060200190602002015160200151029081150290604051600060405180830381858888f19350505050151561165c57600080fd5b828281518110151561166a57fe5b9060200190602002015160600151838381518110151561168657fe5b9060200190602002015160200151026002868154811015156116a457fe5b90600052602060002090600702016002016000828254039250508190555082828151811015156116d057fe5b9060200190602002015160200151810390506117636002868154811015156116f457fe5b906000526020600020906007020160000160009054906101000a900473ffffffffffffffffffffffffffffffffffffffff16848481518110151561173457fe5b9060200190602002015160000151858581518110151561175057fe5b906020019060200201516020015161249a565b611949565b80838381518110151561177757fe5b906020019060200201516020015111156119485780838381518110151561179a57fe5b90602001906020020151602001510383838151811015156117b757fe5b90602001906020020151602001818152505082828151811015156117d757fe5b906020019060200201516000015173ffffffffffffffffffffffffffffffffffffffff166108fc848481518110151561180c57fe5b9060200190602002015160600151858581518110151561182857fe5b9060200190602002015160200151029081150290604051600060405180830381858888f19350505050151561185c57600080fd5b828281518110151561186a57fe5b9060200190602002015160600151838381518110151561188657fe5b9060200190602002015160200151026002868154811015156118a457fe5b906000526020600020906007020160020160008282540392505081905550600090506119476002868154811015156118d857fe5b906000526020600020906007020160000160009054906101000a900473ffffffffffffffffffffffffffffffffffffffff16848481518110151561191857fe5b9060200190602002015160000151858581518110151561193457fe5b906020019060200201516020015161249a565b5b5b5b818060010192505061156f565b600091505b8251821015611a115760011515838381518110151561197757fe5b906020019060200201516080015115151415611a0457828281518110151561199b57fe5b906020019060200201516000015173ffffffffffffffffffffffffffffffffffffffff166108fc84848151811015156119d057fe5b9060200190602002015160a001519081150290604051600060405180830381858888f193505050501515611a0357600080fd5b5b818060010192505061195c565b600285815481101515611a2057fe5b906000526020600020906007020160000160009054906101000a900473ffffffffffffffffffffffffffffffffffffffff1673ffffffffffffffffffffffffffffffffffffffff166108fc600287815481101515611a7a57fe5b9060005260206000209060070201600201549081150290604051600060405180830381858888f193505050501515611ab157600080fd5b6004600286815481101515611ac257fe5b90600052602060002090600702016006018190555060019350505050919050565b6000600280549050905090565b6000600282815481101515611b0157fe5b906000526020600020906007020160040154421015611b235760009050611b28565b600190505b919050565b6000600282815481101515611b3e57fe5b906000526020600020906007020160050154421015611b605760009050611b65565b600190505b919050565b611b7261260f565b611b7a61260f565b611b8261260f565b611b8a61260f565b6000806000611b9761260f565b611b9f61260f565b611ba761260f565b611baf61260f565b6000955060009450600095505b600280549050861015611d11573373ffffffffffffffffffffffffffffffffffffffff16600287815481101515611bef57fe5b906000526020600020906007020160000160009054906101000a900473ffffffffffffffffffffffffffffffffffffffff1673ffffffffffffffffffffffffffffffffffffffff161415611d0457858486600a81101515611c4c57fe5b602002018181525050600286815481101515611c6457fe5b9060005260206000209060070201600101548386600a81101515611c8457fe5b602002018181525050600286815481101515611c9c57fe5b9060005260206000209060070201600201548286600a81101515611cbc57fe5b602002018181525050600286815481101515611cd457fe5b9060005260206000209060070201600601548186806001019750600a81101515611cfa57fe5b6020020181815250505b8580600101965050611bbc565b83838383889a509a509a509a509a505050505050509091929394565b6000806000806000801515611d413361119c565b15151415611d525760009450611e85565b600587029350611d60611e8f565b925092509250801515611d765760009450611e85565b60028054806001018281611d8a919061267e565b9160005260206000209060070201600060e0604051908101604052803373ffffffffffffffffffffffffffffffffffffffff1681526020018b815260200188815260200142815260200160028b811515611de057fe5b04420181526020018a420181526020016001815250909190915060008201518160000160006101000a81548173ffffffffffffffffffffffffffffffffffffffff021916908373ffffffffffffffffffffffffffffffffffffffff1602179055506020820151816001015560408201518160020155606082015181600301556080820151816004015560a0820151816005015560c08201518160060155505050600194505b5050505092915050565b600080600033343073ffffffffffffffffffffffffffffffffffffffff166108fc349081150290604051600060405180830381858888f19350505050925092509250909192565b611ede61260f565b611ee661260f565b611eee61260f565b611ef661260f565b611efe61260f565b600080600080611f0c61260f565b611f1461260f565b611f1c61260f565b611f2461260f565b611f2c61260f565b600097506000965060009550600097505b60028054905088101561213e57600096505b6003600089815260200190815260200160002080549050871015612131573373ffffffffffffffffffffffffffffffffffffffff16600360008a815260200190815260200160002088815481101515611fa457fe5b906000526020600020906006020160000160009054906101000a900473ffffffffffffffffffffffffffffffffffffffff1673ffffffffffffffffffffffffffffffffffffffff16141561212457878587600a8110151561200157fe5b602002018181525050600360008981526020019081526020016000208781548110151561202a57fe5b9060005260206000209060060201600101548487600a8110151561204a57fe5b602002018181525050600360008981526020019081526020016000208781548110151561207357fe5b9060005260206000209060060201600301548387600a8110151561209357fe5b60200201818152505060036000898152602001908152602001600020878154811015156120bc57fe5b9060005260206000209060060201600501548287600a811015156120dc57fe5b6020020181815250506002888154811015156120f457fe5b9060005260206000209060070201600601548187806001019850600a8110151561211a57fe5b6020020181815250505b8680600101975050611f4f565b8780600101985050611f3d565b84848484848a9d509d509d509d509d509d505050505050505050909192939495565b60008060009050600090505b600180549050811015612203573373ffffffffffffffffffffffffffffffffffffffff1660018281548110151561219f57fe5b906000526020600020906003020160000160009054906101000a900473ffffffffffffffffffffffffffffffffffffffff1673ffffffffffffffffffffffffffffffffffffffff1614156121f657600091506122da565b808060010191505061216c565b6001805480600101828161221791906126b0565b916000526020600020906003020160006060604051908101604052803373ffffffffffffffffffffffffffffffffffffffff16815260200187815260200160011515815250909190915060008201518160000160006101000a81548173ffffffffffffffffffffffffffffffffffffffff021916908373ffffffffffffffffffffffffffffffffffffffff1602179055506020820151816001015560408201518160020160006101000a81548160ff021916908315150217905550505050600191505b50919050565b6000806000806000809350600092506000915060036000878152602001908152602001600020805490509050600093505b6001810384101561248d57600092505b83600182030383101561248057600360008781526020019081526020016000206001840181548110151561235157fe5b906000526020600020906006020160030154600360008881526020019081526020016000208481548110151561238357fe5b90600052602060002090600602016003015411156124735760036000878152602001908152602001600020838154811015156123bb57fe5b906000526020600020906006020160030154915060036000878152602001908152602001600020600184018154811015156123f257fe5b906000526020600020906006020160030154600360008881526020019081526020016000208481548110151561242457fe5b90600052602060002090600602016003018190555081600360008881526020019081526020016000206001850181548110151561245d57fe5b9060005260206000209060060201600301819055505b8280600101935050612321565b8380600101945050612311565b6001945050505050919050565b6000809050600090505b600180549050811015612609578373ffffffffffffffffffffffffffffffffffffffff166001828154811015156124d757fe5b906000526020600020906003020160000160009054906101000a900473ffffffffffffffffffffffffffffffffffffffff1673ffffffffffffffffffffffffffffffffffffffff161415612558578160018281548110151561253557fe5b9060005260206000209060030201600101600082825401925050819055506125fc565b8273ffffffffffffffffffffffffffffffffffffffff1660018281548110151561257e57fe5b906000526020600020906003020160000160009054906101000a900473ffffffffffffffffffffffffffffffffffffffff1673ffffffffffffffffffffffffffffffffffffffff1614156125fb57816001828154811015156125dc57fe5b9060005260206000209060030201600101600082825403925050819055505b5b80806001019150506124a4565b50505050565b61014060405190810160405280600a905b60008152602001906001900390816126205790505090565b8154818355818115116126655760060281600602836000526020600020918201910161266491906126e2565b5b505050565b602060405190810160405280600081525090565b8154818355818115116126ab576007028160070283600052602060002091820191016126aa919061275c565b5b505050565b8154818355818115116126dd576003028160030283600052602060002091820191016126dc91906127d2565b5b505050565b61275991905b8082111561275557600080820160006101000a81549073ffffffffffffffffffffffffffffffffffffffff02191690556001820160009055600282016000905560038201600090556004820160006101000a81549060ff02191690556005820160009055506006016126e8565b5090565b90565b6127cf91905b808211156127cb57600080820160006101000a81549073ffffffffffffffffffffffffffffffffffffffff021916905560018201600090556002820160009055600382016000905560048201600090556005820160009055600682016000905550600701612762565b5090565b90565b61283191905b8082111561282d57600080820160006101000a81549073ffffffffffffffffffffffffffffffffffffffff021916905560018201600090556002820160006101000a81549060ff0219169055506003016127d8565b5090565b905600a165627a7a72305820554e9c459405fe3e6a75a0f22bf1084c60a504f80cfca741a1f86ff595a050790029",
  "source": "pragma solidity ^0.4.4;\n\n//Uservalue\n//purchases [] List ID\n\n/*\nweb3.js{ from: __, value: __ }Solidity\nmsg.sendermsg.value\n*/\n\n\ncontract PowerTrade {\n  address owner;  //\n  /* mapping(address => uint) user; */\n  struct User {\n    address userAddress;   //\n    uint value;      //\n    bool valid;     //\n  }\n  User[] users; //ID\n\n  struct Purchase {\n    address purchaserAddress; //\n    uint powerExpected;   //\n    uint purchaserDeposit;  //\n    uint auctionStart;    //\n    uint biddingEnd;    //()\n    uint revealEnd;   //\n    uint status;    //1230\n  }\n  Purchase[] purchases;\n\n  struct Seller {\n    address sellerAddress;  //\n    uint sellerProvide;   //\n    bytes32 priceHash;    //\n    uint price;     //\n    bool valid;     //\n    uint sellerDeposit;   //\n  }\n  mapping(uint=>Seller[]) List; // key:IDvalue:\n\n/*--------------function here------------------------------------------------------*/\n\n/*-------------add here------------------------------------------------------------*/\n\n//\n    function getBalance() constant public returns (uint) {\n        return this.balance;//0\n    }\n\n    //\n    function deposit() payable returns(address addr, uint amount, bool success){\n        //msg.sender \n        //msg.value wei\n        //send() \n        return (msg.sender, msg.value, this.send(msg.value));\n    }\n\n  //       ID\n  function getAllEnabledPurchaserRequest() constant public returns (uint[10],uint[10],uint[10],uint[10],uint[10],uint[10],uint) {\n    uint i=0;\n    uint j=0;\n    uint[10] memory requestID;\n    uint[10] memory powerExpected;\n    uint[10] memory auctionStart;\n    uint[10] memory biddingEnd;\n    uint[10] memory revealEnd;\n    uint[10] memory status;\n    for(i=0; i<purchases.length ;i++)\n    {\n        if (now > purchases[i].biddingEnd) {\n          continue;\n        }\n        requestID[j] = i;\n        powerExpected[j] = purchases[i].powerExpected;\n        auctionStart[j] = purchases[i].auctionStart;\n        biddingEnd[j] = purchases[i].biddingEnd;\n        revealEnd[j] = purchases[i].revealEnd;\n        status[j++] = purchases[i].status;\n    }\n    return(requestID,powerExpected,auctionStart,biddingEnd,revealEnd,status,j);\n  }\n  /*\n  struct OwnBidRecord {\n    uint requestID;\n    uint sellerProvide;\n    uint price;\n    uint sellerDeposit;\n    uint status;\n  }\n  */\n\n//ID  true,false  \n  function transactionAccount(uint requestID) public returns(bool) {\n    require( sortPrice(requestID) );\n    Seller [] memory sellers = List[requestID];\n    \n    uint i=0;\n    uint left = purchases[requestID].powerExpected;\n    for(i=0;i<sellers.length;i++)\n    {\n        if(sellers[i].valid == false){\n            continue;\n        }\n        else if(sellers[i].sellerProvide <= left) {\n            sellers[i].sellerAddress.transfer(sellers[i].sellerProvide * sellers[i].price);\n            purchases[requestID].purchaserDeposit -= sellers[i].sellerProvide * sellers[i].price;\n            left = left - sellers[i].sellerProvide;\n            changeElec(purchases[requestID].purchaserAddress,sellers[i].sellerAddress,sellers[i].sellerProvide);\n        }\n        else if(sellers[i].sellerProvide > left) {\n            sellers[i].sellerProvide = sellers[i].sellerProvide - left;\n            sellers[i].sellerAddress.transfer(sellers[i].sellerProvide * sellers[i].price);\n            purchases[requestID].purchaserDeposit -= sellers[i].sellerProvide * sellers[i].price;\n            left = 0;\n            changeElec(purchases[requestID].purchaserAddress,sellers[i].sellerAddress,sellers[i].sellerProvide);\n        }\n    }\n    //\n    for(i=0;i<sellers.length;i++) {\n        if(sellers[i].valid == true) {\n            sellers[i].sellerAddress.transfer(sellers[i].sellerDeposit);\n        }\n    }\n    //\n    purchases[requestID].purchaserAddress.transfer(purchases[requestID].purchaserDeposit);\n    purchases[requestID].status = 4;\n    return true;\n  }\n\n  //\n  function sortPrice (uint requestID) internal returns(bool )  {\n    uint i=0;\n    uint j=0;\n    uint temp=0;\n    uint n = List[requestID].length;\n    \n    for( i=0;i<n-1;i++) {\n        for(j=0;j<n-1-i;j++) {\n            if( List[requestID][j].price >  List[requestID][j+1].price) {\n                temp = List[requestID][j].price;\n                List[requestID][j].price = List[requestID][j+1].price;\n                List[requestID][j+1].price = temp;\n            }\n        }\n    }\n    return true;\n  }\n  \n  //\n  function changeElec(address buyerAddress,address sellerAddress,uint amount) internal {\n      uint i=0;\n      for(i=0;i<users.length;i++) {\n          if(users[i].userAddress == buyerAddress) {\n              users[i].value += amount;\n          }\n          else if(users[i].userAddress == sellerAddress) {\n              users[i].value -= amount;\n          }\n      }\n  }\n\n  function() payable { }\n\n/*----------------add end----------------------------------------------------------*/\n\n  //\n  function PowerTrade() {\n    owner = msg.sender;\n  }\n\n  //ID  \n  function deleteUser(uint userID) returns (bool){\n    if(msg.sender != owner) {\n      return false;\n    }\n    if(userID > users.length-1) {\n      return false;\n    }\n    users[userID].valid = false;\n    return true;\n  }\n\n  //  \n  function verifyUser(address userAddress) public constant returns(bool) {\n    uint i=0;\n    for(i=0; i<users.length ;i++) {\n      if(users[i].userAddress == userAddress && users[i].valid == true) {\n        return true;\n      }\n    }\n    return false;\n  }\n  //truefalse\n  function addUser(uint power) public returns (bool) {\n    uint i=0;\n    //false\n    for(i=0; i<users.length ;i++) {\n      if( users[i].userAddress == msg.sender ) {\n        return false;\n      }\n    }\n    users.push( User(msg.sender,power,true) );\n    return true;\n  }\n\n  //true,false\n  function releaseRequest(uint powerExpected,uint endTime) payable returns (bool) {\n    if( verifyUser(msg.sender) == false) {\n      return false;\n    }\n    uint purchaserDeposit = powerExpected * 5;  //\n    \n    var (addr, amount, success) = deposit();\n    if(!success)\n      return false;\n    \n    purchases.push( Purchase(msg.sender,powerExpected,purchaserDeposit,now,now+endTime/2,now+endTime,1) );\n\n    return true;\n  }\n\n  //IDtrue,false\n  function sendEncryptPrice(uint requestID,uint sellerProvide,uint sellerDeposit,bytes32 hashValue) public payable returns (bool) {\n    if(verifyUser(msg.sender)==false) {\n      return false;\n    }\n    //\n    if(sendEncryptPriceEnd(requestID) == true) {\n      return false;\n    }\n\n\n    /*add statr*/\n    var (addr, amount, success) = deposit();\n    if(!success)\n      return false;\n    /*add end*/\n\n    List[requestID].push( Seller(msg.sender,sellerProvide,hashValue,0,false,sellerDeposit) );\n    return true;\n  }\n\n  //IDtruefalse\n  function sendEncryptPriceEnd(uint requestID) public constant returns (bool) {\n    if(now < purchases[requestID].biddingEnd) {\n      return false;\n    }\n    else {\n      return true;\n    }\n  }\n\n  //ID,  true,false\n  function sendRealPrice(uint requestID,string pricerandomString,uint price) public returns (bool) {\n    uint i=0;\n    if( verifyUser(msg.sender) == false) {\n      return false;\n    }\n    //\n    if( sendRealPriceEnd(requestID) == true ) {\n      return false;\n    }\n\n    for(i=0; i<List[requestID].length ;i++) {\n      if(List[requestID][i].sellerAddress == msg.sender) {  //\n        if( List[requestID][i].priceHash == sha3(pricerandomString) ) {\n            List[requestID][i].valid = true;\n            List[requestID][i].price = price;\n            return true;\n        }\n        else {\n          List[requestID][i].valid = false;\n          return false;\n        }\n      }\n    }\n    return false;\n  }\n\n  //ID  true,false\n  function sendRealPriceEnd(uint requestID) public constant returns (bool) {\n    if(now < purchases[requestID].revealEnd) {\n      return false;\n    }\n\n    return true;\n  }\n\n  //   ID\n  function getAllPurchaserRequest() constant public returns (uint[10],uint[10],uint[10],uint[10],uint[10],uint[10],uint[10]) {\n    uint i=0;\n    uint j=0;\n    uint[10] memory requestID;\n    uint[10] memory powerExpected;\n    uint[10] memory purchaserDeposit;\n    uint[10] memory auctionStart;\n    uint[10] memory biddingEnd;\n    uint[10] memory revealEnd;\n    uint[10] memory status;\n    for(i=0; i<purchases.length ;i++)\n    {\n        requestID[j] = i;\n        powerExpected[j] = purchases[i].powerExpected;\n        purchaserDeposit[j] = purchases[i].purchaserDeposit;\n        auctionStart[j] = purchases[i].auctionStart;\n        biddingEnd[j] = purchases[i].biddingEnd;\n        revealEnd[j] = purchases[i].revealEnd;\n        status[j++] = purchases[i].status;\n    }\n    return(requestID,powerExpected,purchaserDeposit,auctionStart,biddingEnd,revealEnd,status);\n  }\n  \n  //\n  function getAllPurchaserNum() constant public returns (uint) {\n      return purchases.length;\n  }\n  /*\n  struct OwnBidRecord {\n    uint requestID;\n    uint sellerProvide;\n    uint price;\n    uint sellerDeposit;\n    uint status;\n  }\n  */\n\n   //   ID\n  function getOwnBidRecord() constant public returns (uint[10],uint[10],uint[10],uint[10],uint[10],uint) {\n    uint i=0;\n    uint j=0;\n    uint k=0;\n    uint[10] memory requestID;\n    uint[10] memory sellerProvide;\n    uint[10] memory price;\n    uint[10] memory sellerDeposit;\n    uint[10] memory status;\n\n    for(i=0; i<purchases.length ;i++)\n    {\n      for(j=0; j<List[i].length ;j++)\n      {\n        if(List[i][j].sellerAddress == msg.sender)   //\n        {\n          requestID[k] = i;\n          sellerProvide[k] = List[i][j].sellerProvide;\n          price[k] = List[i][j].price;\n          sellerDeposit[k] = List[i][j].sellerDeposit;\n          status[k++] = purchases[i].status;\n        }\n      }\n    }\n    return(requestID,sellerProvide,price,sellerDeposit,status,k);\n  }\n  \n\n  /*\n  struct OwnPurchaseRuquest {\n    uint powerExpected;\n    uint purchaserDeposit;\n    uint status;\n  }\n  */\n\n  //    ID\n  function getOwnPurchaseRuquest() constant public returns(uint[10],uint[10],uint[10],uint[10],uint) {\n    uint i=0;\n    uint j=0;\n    uint[10] memory requestID;\n    uint[10] memory powerExpected;\n    uint[10] memory purchaserDeposit;\n    uint[10] memory status;\n    for(i=0; i<purchases.length ;i++)\n    {\n      if( purchases[i].purchaserAddress == msg.sender ) {   //\n        requestID[j] = i;\n        powerExpected[j] = purchases[i].powerExpected;\n        purchaserDeposit[j] = purchases[i].purchaserDeposit;\n        status[j++] = purchases[i].status;\n      }\n    }\n    return(requestID,powerExpected,purchaserDeposit,status,j);\n  }\n\n\n  function getEBalance() public constant returns(address,uint) {\n    uint i=0;\n    uint value;\n    for(i=0;i<users.length;i++) {\n      if(msg.sender == users[i].userAddress) {\n        value = users[i].value;\n      }\n    }\n    return (msg.sender,value);\n  }\n}\n",
  "sourcePath": "/home/jachin/Desktop/demo_new/contracts/PowerTrade.sol",
  "compiler": {
    "name": "solc",
    "version": "0.4.18+commit.9cf6e910.Emscripten.clang"
  },
  "schemaVersion": "1.0.1",
  "updatedAt": "2018-06-04T04:45:20.412Z"
}