{
  "contractName": "Transaction",
  "abi": [
    {
      "constant": false,
      "inputs": [],
      "name": "getBalance",
      "outputs": [
        {
          "name": "",
          "type": "uint256"
        }
      ],
      "payable": false,
      "stateMutability": "nonpayable",
      "type": "function"
    },
    {
      "constant": true,
      "inputs": [],
      "name": "orderIndex",
      "outputs": [
        {
          "name": "",
          "type": "uint256"
        }
      ],
      "payable": false,
      "stateMutability": "view",
      "type": "function"
    },
    {
      "constant": false,
      "inputs": [
        {
          "name": "_orderID",
          "type": "uint256"
        },
        {
          "name": "to",
          "type": "address"
        },
        {
          "name": "_elecsell",
          "type": "uint256"
        }
      ],
      "name": "sellUpload",
      "outputs": [],
      "payable": true,
      "stateMutability": "payable",
      "type": "function"
    },
    {
      "constant": false,
      "inputs": [
        {
          "name": "_orderID",
          "type": "uint256"
        },
        {
          "name": "_elecsell",
          "type": "uint256"
        }
      ],
      "name": "joinOrder",
      "outputs": [
        {
          "name": "",
          "type": "bool"
        }
      ],
      "payable": true,
      "stateMutability": "payable",
      "type": "function"
    },
    {
      "constant": true,
      "inputs": [
        {
          "name": "_orderID",
          "type": "uint256"
        }
      ],
      "name": "getJoinOrder",
      "outputs": [
        {
          "name": "",
          "type": "uint256"
        },
        {
          "name": "",
          "type": "address"
        },
        {
          "name": "",
          "type": "address"
        },
        {
          "name": "",
          "type": "uint256"
        },
        {
          "name": "",
          "type": "uint256"
        }
      ],
      "payable": false,
      "stateMutability": "view",
      "type": "function"
    },
    {
      "constant": false,
      "inputs": [
        {
          "name": "_topprice",
          "type": "uint256"
        },
        {
          "name": "_begintime",
          "type": "uint256"
        },
        {
          "name": "_endtime",
          "type": "uint256"
        },
        {
          "name": "_elecpurchase",
          "type": "uint256"
        }
      ],
      "name": "addOrder",
      "outputs": [],
      "payable": false,
      "stateMutability": "nonpayable",
      "type": "function"
    },
    {
      "constant": true,
      "inputs": [
        {
          "name": "_orderID",
          "type": "uint256"
        }
      ],
      "name": "totalJoin",
      "outputs": [
        {
          "name": "",
          "type": "uint256"
        }
      ],
      "payable": false,
      "stateMutability": "view",
      "type": "function"
    },
    {
      "constant": false,
      "inputs": [
        {
          "name": "_orderID",
          "type": "uint256"
        },
        {
          "name": "to",
          "type": "address"
        },
        {
          "name": "_elecuse",
          "type": "uint256"
        }
      ],
      "name": "buyUpload",
      "outputs": [],
      "payable": true,
      "stateMutability": "payable",
      "type": "function"
    },
    {
      "constant": true,
      "inputs": [
        {
          "name": "_orderID",
          "type": "uint256"
        }
      ],
      "name": "getOrder",
      "outputs": [
        {
          "name": "",
          "type": "uint256"
        },
        {
          "name": "",
          "type": "uint256"
        },
        {
          "name": "",
          "type": "uint256"
        },
        {
          "name": "",
          "type": "uint256"
        },
        {
          "name": "",
          "type": "uint256"
        },
        {
          "name": "",
          "type": "uint256"
        },
        {
          "name": "",
          "type": "uint8"
        }
      ],
      "payable": false,
      "stateMutability": "view",
      "type": "function"
    },
    {
      "inputs": [],
      "payable": false,
      "stateMutability": "nonpayable",
      "type": "constructor"
    }
  ],
  "bytecode": "0x6060604052341561000f57600080fd5b60008081905550610ef7806100256000396000f300606060405260043610610099576000357c0100000000000000000000000000000000000000000000000000000000900463ffffffff16806312065fe01461009e57806330471fee146100c75780636319634b146100f057806364f2d0fb1461013057806370f4cffb1461016957806396c1338414610214578063a526a33b14610252578063a8d14dcb14610289578063d09ef241146102c9575b600080fd5b34156100a957600080fd5b6100b1610338565b6040518082815260200191505060405180910390f35b34156100d257600080fd5b6100da610357565b6040518082815260200191505060405180910390f35b61012e600480803590602001909190803573ffffffffffffffffffffffffffffffffffffffff1690602001909190803590602001909190505061035d565b005b61014f60048080359060200190919080359060200190919050506104fe565b604051808215151515815260200191505060405180910390f35b341561017457600080fd5b61018a60048080359060200190919050506106dc565b604051808681526020018573ffffffffffffffffffffffffffffffffffffffff1673ffffffffffffffffffffffffffffffffffffffff1681526020018473ffffffffffffffffffffffffffffffffffffffff1673ffffffffffffffffffffffffffffffffffffffff1681526020018381526020018281526020019550505050505060405180910390f35b341561021f57600080fd5b61025060048080359060200190919080359060200190919080359060200190919080359060200190919050506108d6565b005b341561025d57600080fd5b6102736004808035906020019091905050610a55565b6040518082815260200191505060405180910390f35b6102c7600480803590602001909190803573ffffffffffffffffffffffffffffffffffffffff16906020019091908035906020019091905050610b66565b005b34156102d457600080fd5b6102ea6004808035906020019091905050610cf9565b6040518088815260200187815260200186815260200185815260200184815260200183815260200182600281111561031e57fe5b60ff16815260200197505050505050505060405180910390f35b60003073ffffffffffffffffffffffffffffffffffffffff1631905090565b60005481565b600080600080600060016000600260008b815260200190815260200160002060009054906101000a900473ffffffffffffffffffffffffffffffffffffffff1673ffffffffffffffffffffffffffffffffffffffff1673ffffffffffffffffffffffffffffffffffffffff16815260200190815260200160002060008981526020019081526020016000209350836007016000600260008b815260200190815260200160002060009054906101000a900473ffffffffffffffffffffffffffffffffffffffff1673ffffffffffffffffffffffffffffffffffffffff1673ffffffffffffffffffffffffffffffffffffffff1681526020019081526020016000206000898152602001908152602001600020925083600401549150826002015490508186101561048e576002810294505b8673ffffffffffffffffffffffffffffffffffffffff166108fc869081150290604051600060405180830381858888f1935050505015156104ce57600080fd5b60018460060160006101000a81548160ff021916908360028111156104ef57fe5b02179055505050505050505050565b600080600160006002600087815260200190815260200160002060009054906101000a900473ffffffffffffffffffffffffffffffffffffffff1673ffffffffffffffffffffffffffffffffffffffff1673ffffffffffffffffffffffffffffffffffffffff168152602001908152602001600020600085815260200190815260200160002090508060010154341115151561059957600080fd5b6080604051908101604052803373ffffffffffffffffffffffffffffffffffffffff168152602001858152602001348152602001848152508160070160006002600088815260200190815260200160002060009054906101000a900473ffffffffffffffffffffffffffffffffffffffff1673ffffffffffffffffffffffffffffffffffffffff1673ffffffffffffffffffffffffffffffffffffffff168152602001908152602001600020600086815260200190815260200160002060008201518160000160006101000a81548173ffffffffffffffffffffffffffffffffffffffff021916908373ffffffffffffffffffffffffffffffffffffffff16021790555060208201518160010155604082015181600201556060820151816003015590505060018160050160008282540192505081905550600191505092915050565b6000806000806000806106ed610e43565b60016000600260008b815260200190815260200160002060009054906101000a900473ffffffffffffffffffffffffffffffffffffffff1673ffffffffffffffffffffffffffffffffffffffff1673ffffffffffffffffffffffffffffffffffffffff16815260200190815260200160002060008981526020019081526020016000209150816007016000600260008b815260200190815260200160002060009054906101000a900473ffffffffffffffffffffffffffffffffffffffff1673ffffffffffffffffffffffffffffffffffffffff1673ffffffffffffffffffffffffffffffffffffffff1681526020019081526020016000206000898152602001908152602001600020608060405190810160405290816000820160009054906101000a900473ffffffffffffffffffffffffffffffffffffffff1673ffffffffffffffffffffffffffffffffffffffff1673ffffffffffffffffffffffffffffffffffffffff168152602001600182015481526020016002820154815260200160038201548152505090508060200151600260008a815260200190815260200160002060009054906101000a900473ffffffffffffffffffffffffffffffffffffffff1682600001518360400151846060015196509650965096509650505091939590929450565b6108de610e82565b82841015156108ec57600080fd5b6001600080828254019250508190555060e0604051908101604052806000548152602001868152602001858152602001848152602001838152602001600081526020016000600281111561093c57fe5b815250905080600160003373ffffffffffffffffffffffffffffffffffffffff1673ffffffffffffffffffffffffffffffffffffffff168152602001908152602001600020600080548152602001908152602001600020600082015181600001556020820151816001015560408201518160020155606082015181600301556080820151816004015560a0820151816005015560c08201518160060160006101000a81548160ff021916908360028111156109f357fe5b021790555090505033600260008054815260200190815260200160002060006101000a81548173ffffffffffffffffffffffffffffffffffffffff021916908373ffffffffffffffffffffffffffffffffffffffff1602179055505050505050565b6000610a5f610e82565b600160006002600086815260200190815260200160002060009054906101000a900473ffffffffffffffffffffffffffffffffffffffff1673ffffffffffffffffffffffffffffffffffffffff1673ffffffffffffffffffffffffffffffffffffffff168152602001908152602001600020600084815260200190815260200160002060e060405190810160405290816000820154815260200160018201548152602001600282015481526020016003820154815260200160048201548152602001600582015481526020016006820160009054906101000a900460ff166002811115610b4857fe5b6002811115610b5357fe5b8152505090508060a00151915050919050565b600080600080600060016000600260008b815260200190815260200160002060009054906101000a900473ffffffffffffffffffffffffffffffffffffffff1673ffffffffffffffffffffffffffffffffffffffff1673ffffffffffffffffffffffffffffffffffffffff168152602001908152602001600020600089815260200190815260200160002093508360070160003373ffffffffffffffffffffffffffffffffffffffff1673ffffffffffffffffffffffffffffffffffffffff16815260200190815260200160002060008981526020019081526020016000209250836004015491508260020154905081861115610c6857600381029450610c89565b81861015610c7b57600281029450610c88565b81861415610c87578094505b5b5b8673ffffffffffffffffffffffffffffffffffffffff166108fc869081150290604051600060405180830381858888f193505050501515610cc957600080fd5b60018460060160006101000a81548160ff02191690836002811115610cea57fe5b02179055505050505050505050565b6000806000806000806000610d0c610e82565b60016000600260008c815260200190815260200160002060009054906101000a900473ffffffffffffffffffffffffffffffffffffffff1673ffffffffffffffffffffffffffffffffffffffff1673ffffffffffffffffffffffffffffffffffffffff16815260200190815260200160002060008a815260200190815260200160002060e060405190810160405290816000820154815260200160018201548152602001600282015481526020016003820154815260200160048201548152602001600582015481526020016006820160009054906101000a900460ff166002811115610df557fe5b6002811115610e0057fe5b815250509050806000015181602001518260400151836060015184608001518560a001518660c00151975097509750975097509750975050919395979092949650565b608060405190810160405280600073ffffffffffffffffffffffffffffffffffffffff1681526020016000815260200160008152602001600081525090565b60e06040519081016040528060008152602001600081526020016000815260200160008152602001600081526020016000815260200160006002811115610ec557fe5b815250905600a165627a7a723058206266a269708de22fbdfc156fab8bfa9b6ab6648d1649d1603d12d2c3bd3d577a0029",
  "source": "pragma solidity ^0.4.18;\ncontract Transaction {\n  enum OrderStatus {\n    Open,  //订单公开\n    Accept,//订单被卖家加入\n    UnAccept//没有卖家加入\n  }\n  uint public orderIndex;//订单ＩＤ　统计订单数量\n  //通过买家的钱包地址找到订单信息\n  mapping (address => mapping (uint => Order)) orderInfo;\n  //买家钱包地址\n  mapping (uint => address) buyeraddress;\n  //订单信息\n  struct Order{\n    uint id;\n    uint topprice;\n    uint begintime;\n    uint endtime;\n    uint elecpurchase;\n    uint total;\n    OrderStatus status;\n    //加入该订单的卖家信息\n    mapping (address => mapping (uint => Seller)) sellers;\n  }\n  struct Seller {\n    address seller;\n    uint orderid;\n    uint price;\n    uint elecsell;\n    //uint replytime;\n    //uint sellerprice;//卖家违约金\n  }\n\n  //构造函数，初始无订单\n  function Transaction() public{\n    orderIndex = 0;\n  }\n\n  function getBalance() returns(uint) {\n     return this.balance;\n  }\n  //增加订单\n  function addOrder(uint _topprice,uint _begintime,uint _endtime,uint _elecpurchase) public{\n    require(_begintime < _endtime);//判断输入是否出错\n    orderIndex += 1;\n    Order memory order = Order(orderIndex,_topprice,_begintime,_endtime,_elecpurchase,0,OrderStatus.Open);\n    orderInfo[msg.sender][orderIndex] = order;\n    buyeraddress[orderIndex] = msg.sender;\n  }\n  //读取订单\n  function getOrder(uint _orderID) view public returns (uint,uint,uint,uint,uint,uint,OrderStatus) {\n    Order memory order = orderInfo[buyeraddress[_orderID]][_orderID];\n    return (order.id,order.topprice,order.begintime,order.endtime,order.elecpurchase,order.total,order.status);\n  }\n  //卖家加入订单\n  function joinOrder(uint _orderID,uint _elecsell) payable public returns (bool){\n    Order storage order = orderInfo[buyeraddress[_orderID]][_orderID];\n    /* require(now >= order.begintime);\n    require(now <= order.endtime); */\n    require(msg.value <= order.topprice);\n    order.sellers[buyeraddress[_orderID]][_orderID] = Seller(msg.sender,_orderID,msg.value,_elecsell);\n    order.total += 1;\n    return true;\n  }\n  //查看最终订单信息\n  function getJoinOrder(uint _orderID) view public returns(uint,address,address,uint,uint){\n    /* return (order.id,buyeraddress[order.id],order.sellers[buyeraddress[order.id]][order.id].seller,order.sellers[buyeraddress[order.id]][order.id].price,order.sellers[buyeraddress[order.id]][order.id].elecsell); */\n    Order storage order = orderInfo[buyeraddress[_orderID]][_orderID];\n    Seller memory sellerinfo = order.sellers[buyeraddress[_orderID]][_orderID];\n    return (sellerinfo.orderid,buyeraddress[_orderID],sellerinfo.seller,sellerinfo.price,sellerinfo.elecsell);\n  }\n  /* //买家确认购买\n  function confirmPurchase(uint _orderID) public{\n    Order memory order = orderInfo[buyeraddress[_orderID]][_orderID];\n\n\n  } */\n\n//转账有bug，调试ing\n  function buyUpload(uint _orderID,address to,uint _elecuse) payable public{\n    uint value;\n    Order storage order = orderInfo[buyeraddress[_orderID]][_orderID];\n    Seller storage sellerinfo = order.sellers[msg.sender][_orderID];\n    uint elecnum = order.elecpurchase;\n    uint price = sellerinfo.price;\n    if(_elecuse > elecnum)\n       {\n         value = price * 3;\n       }\n    else if(_elecuse < elecnum)\n       {\n         value = price * 2;\n\n       }\nelse if(_elecuse == elecnum )\n       {\n                value = price;\n       }\n    to.transfer(value);\n    order.status = OrderStatus.Accept;\n     }\n\n  function sellUpload(uint _orderID,address to,uint _elecsell) payable public{\n    uint value;\n    Order storage order = orderInfo[buyeraddress[_orderID]][_orderID];\n    Seller storage sellerinfo = order.sellers[buyeraddress[_orderID]][_orderID];\n    uint elecnum = order.elecpurchase;\n    uint price = sellerinfo.price;\n    if(_elecsell < elecnum)\n    {\n      value = price * 2;\n    }\n    to.transfer(value);\n    order.status = OrderStatus.Accept;\n  }\n  //根据订单ＩＤ返回卖家加入的人数\n  function totalJoin(uint _orderID) view public returns(uint){\n    Order memory order = orderInfo[buyeraddress[_orderID]][_orderID];\n    return order.total;\n  }\n}\n",
  "sourcePath": "/home/jachin/Desktop/demo_new/contracts/Transaction.sol",
  "compiler": {
    "name": "solc",
    "version": "0.4.18+commit.9cf6e910.Emscripten.clang"
  },
  "schemaVersion": "1.0.1",
  "updatedAt": "2018-06-04T04:45:20.849Z"
}